:100000000C942A010C9452010C9452010C9452014C
:100010000C9452010C9452010C9452010C94520114
:100020000C9452010C9452010C94C3060C943207A8
:100030000C9452010C9452010C9452010C945201F4
:100040000C9452010C9452010C9452010C945201E4
:100050000C9452010C9452010C9452010C947906A8
:100060000C9452010C9452010C9452010C945201C4
:100070000C9452010C9452010C9452010C945201B4
:100080000C9452010C9452010C9452010C945201A4
:100090000C9452010C9452010C9452010C94520194
:1000A0000C9452010C9452010C9452010000000077
:1000B000000000002A2B28000000000000000000C3
:1000C0000000000000000000000000002C9EB4A012
:1000D000A1A2A434A6A7A5AE362D3738271E1F200F
:1000E000212223242526B333B62EB7B89F848586D4
:1000F0008788898A8B8C8D8E8F9091929394959618
:100100009798999A9B9C9D2F3130A3AD3504050695
:100110000708090A0B0C0D0E0F10111213141516F7
:100120001718191A1B1C1DAFB1B0B500080B00023F
:100130000202000009040000010202000005240080
:100140001001052401010104240206052406000112
:100150000705810310004009040100020A000000A5
:100160000705020240000007058302400000040367
:10017000090412010002EF0201404123378000010F
:100180000102030141726475696E6F204C4C43009B
:1001900041726475696E6F204D6963726F00000073
:1001A0000000240027002A002D0030000706050467
:1001B0000100080A0B0C0D090000000025002800B2
:1001C0002B002E0031000404040404030405020281
:1001D00002020403020202020606060606060404E0
:1001E0000202020404040802011040804010204072
:1001F000804080080204018040201002011080101D
:10020000204040200000000200090F00000304010C
:10021000000C0000000000000000000000000000D2
:1002200000000005010906A1018502050719E02962
:10023000E715002501750195088102950175088172
:1002400003950675081500257305071900297381A4
:1002500000C0640911241FBECFEFDAE0DEBFCDBFBE
:1002600011E0A0E0B1E0E2E6FAE102C005900D92F3
:10027000AE33B107D9F721E0AEE3B1E001C01D9282
:10028000AA3EB207E1F711E0CAE2D1E004C021972B
:10029000FE010E94290DC932D107C9F70E940A0A3E
:1002A0000C942F0D0C940000E1E1F2E02491E2EFB8
:1002B000F1E03491E3EDF1E09491992309F430C039
:1002C0002223E9F021502F30D0F4E22FF0E0E5595D
:1002D000FE4F0C94290D99019D017A019101950120
:1002E0007F017F017F01A001A601AA01AE01B40137
:1002F0007F01B801209180002F7720938000E92FA3
:10030000F0E0EE0FFF1FE854FE4FA591B4919FB7A8
:10031000F894EC91811132C030953E233C939FBFFD
:100320000895209180002F7DE8CF20918000277FC5
:10033000E4CF24B52F7724BDE2CF24B52F7DFBCFAA
:10034000209190002F7720939000D9CF209190009A
:100350002F7DF9CF20919000277FF5CF2091C0000D
:100360002F772093C000CBCF2091C0002F7DF9CFF5
:100370002091C200277F2093C200C1CF3E2BCECF59
:10038000CF93DF93FC0181819091B301482F490FF6
:100390005527551F483051059CF5A281B381109710
:1003A00009F52FEA31E03383228320812093B101C4
:1003B0008093B2018091B401820F80832091B501B6
:1003C000A22FB091B6018A2F821B8917E8F4818190
:1003D0003D91C82FD0E0C45FDE4F38838F5F8183AB
:1003E000F2CFD90118962D913C911997211531051D
:1003F000C1F72FEA31E019963C932E931897D5CF89
:1004000080E0DF91CF91089581E0FBCFFC018091E6
:100410005E01882311F13FB7F89482E08093E900F0
:100420002091F200822F90E01816190614F481E052
:1004300090E0882339F0289A44E640935D0140918A
:10044000F1004083222339F02091F200211103C0F2
:100450002BE62093E8003FBF08958FEF9FEF0895AC
:10046000CF93DF931F92CDB7DEB76983DC01ED91A7
:10047000FC910280F381E02D41E050E0BE016F5F0E
:100480007F4F09950F90DF91CF91089583E080937E
:10049000E9008091F200882319F08AE38093E80054
:1004A0000895CF93DF931F92CDB7DEB7FC0184850B
:1004B000958597FD08C02FEF3FEF358724870F9074
:1004C000DF91CF910895CE0101960E940602019717
:1004D00019F4898190E0F3CF8FEF9FEFF0CF0F9366
:1004E0001F93CF93DF931F92CDB7DEB78C01FC0132
:1004F0008485958597FF0BC0CE0101960E94060268
:10050000019771F4898190E0F80195878487F8015B
:10051000848595850F90DF91CF911F910F9108955C
:100520008FEF9FEFF1CFFC018485958597FD0BC080
:100530009FB7F89482E08093E9008091F2009FBF1A
:1005400090E0019608959FB7F89482E08093E900C7
:100550008091F2009FBF90E008953FB7F89480919A
:10056000590190915A01A0915B01B0915C0126B5AF
:10057000A89B05C02F3F19F00196A11DB11D3FBFDB
:10058000BA2FA92F982F8827BC01CD01620F711DAA
:10059000811D911D42E0660F771F881F991F4A95A4
:1005A000D1F70895CF92DF92EF92FF920E94AD02B1
:1005B0006B017C010E94AD026C197D098E099F09B7
:1005C000683E734081059105A8F3FF90EF90DF909E
:1005D000CF90089540914C0150914D0120914A01D6
:1005E00030914B0142175307B4F49091E800957095
:1005F000E1F39091E80092FD19C08093F1008091A1
:100600004C0190914D0101968F739927892B19F414
:100610008EEF8093E80080914C0190914D010196FE
:1006200090934D0180934C0181E0089580E00895FE
:10063000EF92FF920F931F93CF93DF93F82E192F12
:10064000E62E042F81E0860F880F0E94EA0283E0E5
:100650000E94EA02CF2DD12FEC0EFD2EF11CCE15FB
:10066000DF05B9F007FF13C0FE0184910E94EA0282
:10067000182F80E00E94EA02812321968111EFCF9A
:10068000DF91CF911F910F91FF90EF900895888196
:10069000EDCF81E0F5CFDF92EF92FF920F931F93A2
:1006A000CF93DF93D82E8A01EB017B01E40EF51E78
:1006B000CE15DF0559F0D7FE12C0FE0184910E94CD
:1006C000EA0221968111F4CF0FEF1FEFC801DF91ED
:1006D000CF911F910F91FF90EF90DF900895888147
:1006E000EECF2FB7F89487708093E9009091E800DF
:1006F000892F807295FF04C09091F20080E4891BDD
:100700002FBF089583E00E94710390E008957F92C7
:100710008F929F92AF92BF92CF92DF92EF92FF9211
:100720000F931F93CF93DF93C82E8B017A01809193
:100730005E01811110C08FEF9FEFDF91CF911F916C
:100740000F91FF90EF90DF90CF90BF90AF909F9070
:100750008F907F9008958091500180FF05C0809117
:10076000E00082608093E000CE2DDF2DD12C8AEF57
:10077000B82E8C2D8770982E8C2D8072882E8C2D03
:100780008074782E9AE3A92E209719F4DD2009F4BD
:100790004EC08C2D0E947103811106C0BA94BB20FB
:1007A00051F20E94D202F0CF8C171D0611F00CF00E
:1007B0008C2F9FB7F8949092E9002091E80025FDD6
:1007C00002C09FBFE1CF282F30E0C21BD30B88208F
:1007D00029F08150A0F01092F100FBCFF801C7FC86
:1007E0000AC0815050F041914093F100FACF4491FA
:1007F0004093F10031968150D0F7020F131FDD2096
:1008000021F0A092E800D12CDCCF8091E80085FD9A
:1008100007C0A092E800DD24D394209791F2F3CF93
:10082000209779F6772069F2A092E800CACF5D9A06
:1008300084E680934F01C70180CFCF93DF93EC0113
:1008400080910B01882331F083E00E948703181602
:10085000190634F081E090E09B838A8380E090E089
:10086000DF91CF910895615030F02091F100FC01AB
:1008700020830196F8CF289A84E680935D0108953D
:100880008091420181110DC082E080933E0184E09D
:1008900080933F01109241011092400181E08093CA
:1008A00042018EE391E00895EF92FF921F93CF9360
:1008B000DF931F92CDB7DEB77C018091C00181111B
:1008C0002AC011E01093B3011093B40189EB91E0B9
:1008D0009093B6018093B5011092B8011092B701C0
:1008E00089E291E09093B0018093AF011092BB0137
:1008F0001092BA011092BD011092BC011093BE017A
:100900001093BF0181EC8093B9010E9440040E94C2
:10091000C0011093C00182E0898341E050E0BE0134
:100920006F5F7F4F8091B2010E94870397FD08C0DF
:100930008091B20148E050E0B70180640E948703D3
:100940000F90DF91CF911F91FF90EF9008950F933B
:100950001F93CF93DF931F92CDB7DEB782E08983D9
:1009600042E450E06CE271E080E80E944B030E9498
:100970004004DC0112960D911C910115110589F0BE
:10098000D801ED91FC910280F381E02DBE016F5FF3
:100990007F4FC801099597FD04C0F80100851185B6
:1009A000ECCF89810F90DF91CF911F910F91089526
:1009B000DC01FB0112962C911297848195812817F6
:1009C000190641F491818081813A31F49D7F81E063
:1009D000913009F080E008958132E1F79B3029F4ED
:1009E00082811F968C9381E008959A3099F78281D5
:1009F00050968C93F8CFDC01FB0188E4808389E476
:100A0000818384E482831D969C911D979F709F5BD8
:100A100093831D968D919C9124E0969587952A95B8
:100A2000E1F78F708F5B848385E00895EF92FF92EA
:100A30000F931F93CF93DF93FB012081213871F532
:100A40002381223259F5DC0112964C9124813581A3
:100A50004217130619F5EC010B851C85F12CE12CCE
:100A60000115110589F0F801448155816281738176
:100A700080E80E944B038F3F980749F0E80EF91E6B
:100A8000D8010D911C91ECCF81E08F87C701DF91D8
:100A9000CF911F910F91FF90EF90089590E080E02B
:100AA000F6CFCF93DF93CDB7DEB769970FB6F89443
:100AB000DEBF0FBECDBFFC01DB018C918F5F8C933D
:100AC0009E012D5F3F4F8DE0D9011D928A95E9F778
:100AD00029E0298384E08A8391E09D8383E08E83EB
:100AE0002A8721E22B879C879D879F8722E2288B7C
:100AF00027E02B8B25E02C8B8E8B20E430E0388F89
:100B00002F8B998F82818B8395858685998B8A8B94
:100B1000838180688D8B49E150E0BE016F5F7F4F1C
:100B200080E00E944B0369960FB6F894DEBF0FBEBB
:100B3000CDBFDF91CF910895CF92DF92EF92FF92D8
:100B40000F931F93CF93DF936C01EB017B01E40EB6
:100B5000F51E10E000E0CE15DF0581F069916D30E3
:100B6000D1F3D601ED91FC910190F081E02DC60109
:100B70000995892B19F00F5F1F4FEDCFC801DF9149
:100B8000CF911F910F91FF90EF90DF90CF9008953C
:100B9000DC01683888F1685816968C91169786178C
:100BA00021F117968C9117978617F9F018968C916A
:100BB00018978617D1F019968C9119978617A9F076
:100BC0001A968C911A97861781F01B968C911B9719
:100BD000861759F0FD01369690E080E021912111B1
:100BE00039C08A0F9B1FFC016683CD0104960E94C9
:100BF000540481E090E00895E62FF0E067FF11C013
:100C0000E058F10921E030E001C0220FEA95EAF74F
:100C100014968C911497822B14968C93149760E001
:100C2000BBCFE455FF4F6491611109C081E090E0B2
:100C300013969C938E93129790E080E0089567FF3F
:100C4000ABCF14968C911497826014968C93149762
:100C50006F77A2CF01968630910509F0BFCFE6CF1E
:100C6000EF92FF920F931F93CF938C01C62F0E9498
:100C7000C8057C01C838C8F0C858F80186E0CC2304
:100C800021F09681C91301C01682815031968111DD
:100C9000F6CFC80104960E945404C7019927CF914A
:100CA0001F910F91FF90EF900895EC2FF0E0C7FF98
:100CB0000FC0E058F10981E090E001C0880FEA958B
:100CC000EAF78095F801948189238483C0E0D5CF29
:100CD000E455FF4FC491CC2301F3C7FFCECFF801F9
:100CE00084818D7F8483CF77C8CF089590E080E0A2
:100CF00008951F920F920FB60F9211242F933F93D6
:100D00008F939F93AF93BF9380915501909156011C
:100D1000A0915701B09158013091540123E0230F65
:100D20002D3758F50196A11DB11D209354018093D4
:100D3000550190935601A0935701B09358018091AB
:100D4000590190915A01A0915B01B0915C0101960B
:100D5000A11DB11D8093590190935A01A0935B018D
:100D6000B0935C01BF91AF919F918F913F912F9173
:100D70000F900FBE0F901F90189526E8230F029634
:100D8000A11DB11DD2CF1F920F920FB60F92112449
:100D90008F939F938091E1009091E100937F9093D6
:100DA000E10083FF0FC01092E90091E09093EB0007
:100DB0001092EC0092E39093ED0010925E0198E0A7
:100DC0009093F00082FF22C093E09093E90090910D
:100DD000F200992319F09AE39093E80090914F0163
:100DE000992341F090914F01915090934F019111AF
:100DF00001C05D9890915D01992341F090915D0152
:100E0000915090935D01911101C0289884FF18C002
:100E10008091E2008E7E81608093E2008091E1000B
:100E20008F7E8093E100809150018E7E806180935F
:100E300050019F918F910F900FBE0F901F901895AA
:100E400080FFF7CF8091E2008E7E80618093E20088
:100E50008091E1008E7E8093E100809150018E7E32
:100E60008160E5CF1F920F920FB60F921124CF929F
:100E7000DF92EF92FF920F931F932F933F934F9325
:100E80005F936F937F938F939F93AF93BF93EF93F2
:100E9000FF93CF93DF93CDB7DEB76C97DEBFCDBFA7
:100EA0001092E9008091E80083FF25C068E0CE0140
:100EB00045960E94330482EF8093E8008D8987FF76
:100EC00039C09091E80090FFFCCF982F907609F000
:100ED00034C19E894F89588D2F89F88C911131C06A
:100EE000803861F5809151018093F1001092F100FA
:100EF0008EEF8093E8006C960FB6F894DEBF0FBEBD
:100F0000CDBFDF91CF91FF91EF91BF91AF919F91B5
:100F10008F917F916F915F914F913F912F911F9191
:100F20000F91FF90EF90DF90CF900F900FBE0F903A
:100F30001F9018959EEF9093E800C7CF1092F10094
:100F4000D5CF913059F48111D3CF4130510581F67D
:100F5000809151018D7F80935101CACF933049F424
:100F60008111C6CF4130510519F68091510182603F
:100F7000F2CF953041F48091E80080FFFCCF2068EB
:100F80002093E300B5CF963009F0A9C00B8D1C8DDE
:100F900022E01092E90010924D0110924C01F212E1
:100FA0002EC010924B0110924A010E94A7041F828A
:100FB00099E09983FA8291E09E8390EA98879AEF6C
:100FC000998720914C0130914D01275F3F4F3C8321
:100FD0002B838D831092E90010924D0110924C01E9
:100FE00010934B0100934A0149E050E0BE016F5F4E
:100FF0007F4F80E00E944B030E94A70479CF10939B
:101000004B0100934A010E944004DC0112960D91AD
:101010001C910115110509F451C1D801ED91FC9104
:101020000480F581E02DBE016B5E7F4FC8010995FC
:10103000009709F03EC1F80100851185EACFF3E081
:10104000FF120EC08F89882309F440C0823061F4FA
:1010500040E86DE080E991E00E941803811148CFDB
:1010600081E28093EB0047CF813029F440E86BE0C8
:1010700084E891E0F1CF833099F70E944004DC01CD
:101080001296ED90FC908E010F5F1F4F6801E114E6
:10109000F10479F0D701ED91FC910680F781E02D04
:1010A000B801C7010995080F111DF701E084F1840B
:1010B000EECFD8011C92F60101900020E9F731979C
:1010C000BF016C197D0940E0C601C6CF6EE671E034
:1010D000FB01449150E080E80E944B0309CF973018
:1010E00009F4BECF983021F481E08093F10000CF65
:1010F000993009F0FDCE837009F0B2CFEDE0F1E058
:1011000081E031E096E32191222371F08093E900A0
:101110003093EB00DF0111972C912093EC0090931A
:10112000ED008F5F873079F78EE78093EA001092A9
:10113000EA008F8980935E01DBCE8B8D9C8D1092AF
:10114000E90010924D0110924C0190934B01809355
:101150004A01898D811192C08E899D89913A49F405
:10116000813209F07DCF47E050E064E071E080E03B
:10117000B3CF913209F074CF833269F48F89988D9F
:10118000B0E0A0E08093000190930101A0930201E0
:10119000B0930301ADCE803269F48091E80082FF04
:1011A000FCCF67E084E091E00E9433048BEF8093F2
:1011B000E8009ECE823209F09BCE8F8980930B018E
:1011C000EEEFFFE7859194918B3F9C4D51F1E0E06C
:1011D000F8E08091040190910501A0910601B09181
:1011E0000701803B9440A105B105F1F480910B010A
:1011F00080FD1AC0EE3F8AE0F80789F587E797E798
:10120000918380838091600080934E0188E19BE010
:101210000FB6F894A895809360000FBE909360007D
:1012200067CEEEEFFAE0D5CF80819181873797477F
:1012300009F05ECEA895809160008861809360007F
:1012400080914E0180936000EE3F2AE0F20789F022
:101250008091FE0A9091FF0A9183808349CE80811C
:1012600091818737980751F29093FF0A8093FE0A85
:10127000C5CF1092FF0A1092FE0A3ACE0E94400497
:10128000DC0112960D911C910115110509F4E8CEAF
:10129000D801ED91FC910190F081E02DBE016B5ED3
:1012A0007F4FC8010995811123CEF8010085118572
:1012B000EBCF181619060CF41BCED2CEF1E0FF12BC
:1012C000BECE62E771E004CFCF931092620110921C
:1012D000610188EE93E0A0E0B0E080936301909319
:1012E0006401A0936501B093660187E191E090935A
:1012F000600180935F018FEF9FEF90936C0180936B
:101300006B011092D9011092D80185E391E090937E
:10131000D7018093D6018091CE01811113C0109224
:10132000C9011092C80183E292E09093CB018093AF
:10133000CA018FE290E09093CD018093CC0181E0CF
:101340008093CE018091C00181112AC0C1E0C09379
:10135000B301C093B40189EB91E09093B6018093FF
:10136000B5011092B8011092B70189E291E0909313
:10137000B0018093AF011092BB011092BA0110929C
:10138000BD011092BC01C093BE01C093BF0181ECAE
:101390008093B9010E9440040E94C001C093C00123
:1013A000E091BA01F091BB01309759F588EC91E0DA
:1013B0009093BB018093BA018091BC019091BD01D3
:1013C0002091CC013091CD01820F931F9093BD01EC
:1013D0008093BC011092E2011092E3011092E401AB
:1013E0001092E50180E59FE3A0E3BDE38093E60171
:1013F0009093E701A093E801B093E901CF9108959C
:10140000FC01808191810097D9F788EC91E091836C
:101410008083D2CF789484B5826084BD84B58160A6
:1014200084BD85B5826085BD85B5816085BD8091AF
:101430006E00816080936E00109281008091810027
:10144000826080938100809181008160809381001F
:101450008091800081608093800080919100826003
:1014600080939100809191008160809391008091A0
:1014700090008160809390008091C100846080938F
:10148000C1008091C10082608093C1008091C10041
:1014900081608093C1008091C30081608093C3000C
:1014A0008091C00082608093C0008091C200816002
:1014B0008093C20080917A00846080937A0080914A
:1014C0007A00826080937A0080917A0081608093B4
:1014D0007A0080917A00806880937A0010925E0191
:1014E00010925101109250018091D7008160809339
:1014F000D70080EA8093D80089B5806189BD89B51D
:10150000826089BD09B400FEFDCF0E94D2028091A5
:10151000D8008F7C80618093D8008091E000807F2C
:101520008093E0008091E1008E7E8093E1008DE069
:101530008093E200559A209A5D982898E2EFF1E0B6
:101540002491E3EDF1E08491882399F090E0880FF5
:10155000991FFC01E256FE4FA591B491FC01E8549D
:10156000FE4F859194918FB7F894EC91E22BEC9318
:101570008FBFE7EFF1E02491E8EDF1E0849188235B
:10158000C1F090E0880F991FFC01E256FE4FC59113
:10159000D491FC01E854FE4FA591B4919FB7F89403
:1015A0003881822F809583238883EC91E22BEC9302
:1015B0009FBFCCEAD1E000E010E0FF24F394FE01ED
:1015C000849120917B00982F990F990F90722F7D15
:1015D000922B90937B008770806480937C00809135
:1015E0007A00806480937A0080917A0086FDFCCF37
:1015F00080917800609179008090E2019090E30101
:10160000A090E401B090E501762F682F072E000C22
:10161000880B990B0E94300CA50194010E948B0B42
:101620002091E6013091E7014091E8015091E901F4
:101630000E94BC0CA50194010E948C0B6093E201F6
:101640007093E3018093E4019093E5010E94F80B0D
:101650006F3F71400CF059C0F092530181E00E943D
:10166000540180915301882309F448C080915201AC
:10167000811144C062E886ED91E00E94C80563E7ED
:1016800086ED91E00E9430061092DC011092DD019F
:101690001092DE011092DF011092E0011092E10140
:1016A0001092DA018AED91E00E94540461EB86ED1C
:1016B00091E00E94300662E886ED91E00E94C80544
:1016C00061E786ED91E00E9430061092DC011092F5
:1016D000DD011092DE011092DF011092E001109204
:1016E000E1011092DA018AED91E00E94540460EB6E
:1016F00086ED91E00E943006F0925201011511052D
:1017000009F45DCF0E9400005ACF1092530110924D
:10171000520180E0A4CF5058BB27AA270E94A30BF8
:101720000C94820C0E94740C38F00E947B0C20F008
:1017300039F49F3F19F426F40C94710C0EF4E095E3
:10174000E7FB0C946B0CE92F0E94930C58F3BA172B
:10175000620773078407950720F079F4A6F50C94C7
:10176000B50C0EF4E0950B2EBA2FA02D0B01B9018C
:1017700090010C01CA01A0011124FF27591B99F007
:10178000593F50F4503E68F11A16F040A22F232F13
:10179000342F4427585FF3CF469537952795A79563
:1017A000F0405395C9F77EF41F16BA0B620B730B0A
:1017B000840BBAF09150A1F0FF0FBB1F661F771F7B
:1017C000881FC2F70EC0BA0F621F731F841F48F430
:1017D000879577956795B795F7959E3F08F0B0CFB9
:1017E0009395880F08F09927EE0F979587950895A0
:1017F0000E94FF0B6894B1110C94B60C08950E94DE
:101800009B0C88F09F5798F0B92F9927B751B0F0EB
:10181000E1F0660F771F881F991F1AF0BA95C9F774
:1018200014C0B13091F00E94B50CB1E008950C9451
:10183000B50C672F782F8827B85F39F0B93FCCF304
:10184000869577956795B395D9F73EF490958095F1
:10185000709561957F4F8F4F9F4F0895E89409C011
:1018600097FB3EF490958095709561957F4F8F4FD3
:101870009F4F9923A9F0F92F96E9BB279395F695E9
:10188000879577956795B795F111F8CFFAF4BB0F67
:1018900011F460FF1BC06F5F7F4F8F4F9F4F16C0CB
:1018A000882311F096E911C0772321F09EE8872F55
:1018B000762F05C0662371F096E8862F70E060E011
:1018C0002AF09A95660F771F881FDAF7880F96958A
:1018D000879597F9089597F99F6780E870E060E031
:1018E00008959FEF80EC089500240A9416161706B9
:1018F00018060906089500240A9412161306140601
:1019000005060895092E0394000C11F4882352F063
:10191000BB0F40F4BF2B11F460FF04C06F5F7F4F1B
:101920008F4F9F4F089557FD9058440F551F59F002
:101930005F3F71F04795880F97FB991F61F09F3FBC
:1019400079F087950895121613061406551FF2CFE5
:101950004695F1DF08C0161617061806991FF1CF35
:1019600086957105610508940895E894BB2766275C
:101970007727CB0197F908950E94CF0C0C94820C25
:101980000E94740C38F00E947B0C20F0952311F01B
:101990000C946B0C0C94710C11240C94B60C0E94DA
:1019A000930C70F3959FC1F3950F50E0551F629F04
:1019B000F001729FBB27F00DB11D639FAA27F00DA8
:1019C000B11DAA1F649F6627B00DA11D661F829FCF
:1019D0002227B00DA11D621F739FB00DA11D621FB4
:1019E000839FA00D611D221F749F3327A00D611DD1
:1019F000231F849F600D211D822F762F6A2F1124B3
:101A00009F5750409AF0F1F088234AF0EE0FFF1FE5
:101A1000BB1F661F771F881F91505040A9F79E3F3C
:101A2000510580F00C946B0C0C94B60C5F3FE4F302
:101A3000983ED4F3869577956795B795F795E79592
:101A40009F5FC1F7FE2B880F911D9695879597F99B
:101A50000895EE0FFF1F0590F491E02D0994F8947E
:021A6000FFCFB6
:101A6200FFFFFFFF00E100000000000000C18081D5
:101A72000000000000000030021D048203460293B1
:101A82000251026F0200000000D80451051605FB46
:0E1A9200040000000030069C05760675060074
:00000001FF
